S010000041746D65676138612E737265632C
S113000012C02CC02BC02AC029C028C027C026C0BB
S113001025C024C023C0EFC021C020C01FC01EC003
S11300201DC01CC01BC011241FBECFE5D4E0DEBF21
S1130030CDBF10E0A0E6B0E0EEEBF4E002C0059026
S11300400D92AA37B107D9F720E0AAE7B0E001C0C2
S11300501D92AF37B207E1F713D12FC2D1CF5D9B09
S1130060FECF8CB9089595B3937C95BB80FDAA9A75
S113007081FDAB9A82FDAC9A83FDAD9AA99A82E088
S11300808A95F1F700C0A99887EC90E00197F1F701
S113009000C000000895CF93C82F662311F0A89ADA
S11300A001C0A8988C2F82958F70DDDF8C2F8F7004
S11300B0DADF85E88A95F1F70000CF910895CF93B0
S11300C0DF93EC018881882331F0219661E0E3DF3E
S11300D089918111FBCFDF91CF910895CF93C82FE0
S11300E060E0D9DFC150C23030F48FE99FE001975E
S11300F0F1F700C00000CF91089590E030E021E0D6
S1130100432F82B38C6382BB913041F028F092304C
S113011039F0933039F007C0929805C0939803C022
S1130120949801C095988DE08A95F1F70000E32F2B
S1130130E13061F028F0E23079F0E33089F015C065
S113014080B386FB882780F9822710C080B380950E
S1130150881F8827881F0AC086B38227817006C03B
S113016086B386958170822701C0842F882351F03D
S1130170F0E084E0989FE00DF11D1124E659FF4F53
S113018080810895EF5FE43099F69F5F943009F021
S1130190B8CF80E008950F931F93CF93DF9300D0DF
S11301A000D000D0CDB7DEB78C014AE0BE016F5F4E
S11301B07F4F50D1CE01019682DF083E83E01807BD
S11301C018F461E080E267DF0436110518F461E099
S11301D080E261DF0A30110518F461E080E25BDF40
S11301E026960FB6F894DEBF0FBECDBFDF91CF9138
S11301F01F910F9108951F920F920FB60F92112421
S11302002F938F939F939CB180917C00813061F0F8
S113021028F0823079F0833099F028C0953A41F57E
S113022081E080937C0024C090937B0082E08093E3
S11302307C001EC090937A0083E080937C0018C0F9
S113024020917A0080917B00822725EA82279813E7
S11302500AC020917B0080917A0090E0922B9093C9
S11302607E0080937D0010927C0002C010927C007E
S11302709F918F912F910F900FBE0F901F90189503
S113028084B38F6384BB85B38C7F85BB2FEF89EFE9
S113029090E0215080409040E1F700C0000083E0EE
S11302A0E2DE8FE097E20197F1F700C0000083E0FF
S11302B0DADE8BE291E00197F1F700C0000083E001
S11302C0D2DE82E0D0DE88E209DF8CE007DF86E060
S11302D005DF81E003DF81B38C6381BB81B38F735E
S11302E081BB87B38C7F87BB82B38C6382BB82B3B1
S11302F0806C82BB88B3836088BB10BC83E389B9FC
S113030088E98AB986E880BD789480E8E7DE80E6EB
S113031090E0D5DE80ECE2DE85E690E0D0DEF12CE4
S113032000E010E0C12CD12CE12C0F2EF5EABF2EF9
S1130330F02DE3DEC82F882309F464C08FE39CE921
S11303400197F1F700C00000D8DEC8135BC006C0F7
S11303508FE097E20197F1F700C00000CEDE811133
S1130360F7CF66C093E09F1508F44CC09801220FA4
S1130370331F000F111F000F111F000F111F020F59
S1130380131F0C0F111D00531109F3943BC0CA3203
S113039091F1C13479F49801ADECBCEC4FD08C01EF
S11303A0169507951695079516950795FF2051F113
S11303B0FA9428C0C23439F40F3027E2120710F53A
S11303C00F5F1F4F1FC0C33431F401151105D1F065
S11303D00150110917C0C43491F0C33299F4CB2DE4
S11303E0C027C1278B2D3BDE812F39DE802F37DEDE
S11303F08C2F35DE07C0FC2C0D2D1E2D03C0FC2CCC
S11304000D2D1E2D8FB7F894C0917D00D0917E00E4
S11304108FBF85E863DEC801BEDE85EC5FDECE01FA
S1130420BADE8FE39CE90197F1F700C0000081CFA9
S113043080ED8C0F8A3008F495CFA9CFA29FB0012C
S1130440B39FC001A39F01D0B29F700D811D1124E1
S1130450911D0895BB274A3031F4992322F4BDE25B
S1130460909581959F4F01C0BB27FB015527AA2773
S1130470880F991FAA1FA41710F0A41B839550512D
S1130480B9F7A05DAA3308F0A95DA193009779F7A5
S1130490B111B1931192CB0100C0DC01FC01672FB3
S11304A071917723E1F7329704C07C916D93708347
S11104B06291AE17BF07C8F30895F894FFCF0A
S11304BE4D38203A004D31363A003132334134351D
S10D04CE3642373839432A302344FC
S9030000FC
