:100000000C942A000C9447000C9447000C94470071
:100010000C9447000C9447000C9447000C94470044
:100020000C9447000C9447000C9447000C94130167
:100030000C9447000C9447000C9447000C94470024
:100040000C9447000C9447000C9447000C94470014
:100050000C94470011241FBECFE5D4E0DEBFCDBF16
:1000600010E0A0E6B0E0E8E1F5E002C005900D92F6
:10007000AA37B107D9F720E0AAE7B0E001C01D9286
:10008000AF37B207E1F70E9458010C948A020C9432
:1000900000005D9BFECF8CB9089595B39F7095BB12
:1000A00080FDAC9A81FDAD9A82FDAE9A83FDAF9A38
:1000B000A99A82E08A95F1F700C0A99887EC90E0B0
:1000C0000197F1F700C000000895CF93C82F662371
:1000D00011F0A89A01C0A8988C2F82958F700E9469
:1000E0004D008C2F8F700E944D0085E88A95F1F7A6
:1000F0000000CF910895CF93DF93EC01888188238E
:1001000039F0219661E00E94650089918111FACF52
:10011000DF91CF910895CF93C82F60E00E946500D2
:10012000C150C23030F48FE99FE00197F1F700C071
:100130000000CF910895CF93DF9360E070E0A1E0DD
:10014000B0E08BB38F608BBB2BB3EB01CD01062EE0
:1001500002C0880F991F0A94E2F7809582238BBB17
:100160008DE08A95F1F70000CC9B0FC0CD0129B33B
:10017000FC0130E0AC014C5F5F4F02C03595279524
:100180004A95E2F720FD0DC002C0E0E0F0E0CC0FA0
:10019000DD1FCC0FDD1FEC0FFD1FE659FF4F8081E7
:1001A0000AC001968430910511F76F5F7F4F64306C
:1001B000710539F680E0DF91CF9108950F931F9379
:1001C000CF93DF9300D000D000D0CDB7DEB78C0145
:1001D0004AE0BE016F5F7F4F0E945502CE0101963B
:1001E0000E947B00083E83E0180720F461E080E273
:1001F0000E9465000436110520F461E080E20E944F
:1002000065000A30110520F461E080E20E9465007B
:1002100026960FB6F894DEBF0FBECDBFDF91CF910B
:100220001F910F9108951F920F920FB60F921124F4
:100230002F938F939F939CB180917C00813061F0CC
:1002400028F0823079F0833099F028C0953A41F552
:1002500081E080937C0024C090937B0082E08093B7
:100260007C001EC090937A0083E080937C0018C0CD
:1002700020917A0080917B00822725EA82279813BB
:100280000AC020917B0080917A0090E0922B90939D
:100290007E0080937D0010927C0002C010927C0052
:1002A0009F918F912F910F900FBE0F901F901895D7
:1002B00084B7806884BF84B7806884BF84B3836F49
:1002C00084BB85B38C7F85BB2FEF89EF90E02150F5
:1002D00080409040E1F700C0000083E00E944D00A4
:1002E0008FE097E20197F1F700C0000083E00E94E1
:1002F0004D008BE291E00197F1F700C0000083E030
:100300000E944D0082E00E944D0088E20E948B0016
:100310008CE00E948B0086E00E948B0081E00E94AE
:100320008B008FE08ABB8FEF8BBB10BC83E389B956
:1003300088E98AB986E880BD789480E80E948B00BD
:1003400080E690E00E947B0080EC0E948B0085E6B6
:1003500090E00E947B00F12C00E010E0C12CD12C39
:10036000E12C0F2EF5EABF2EF02D0E949B00C82F26
:10037000882309F46BC08FE39CE90197F1F700C073
:1003800000000E949B00C81361C006C08FE097E286
:100390000197F1F700C000000E949B008111F6CF89
:1003A0006FC093E09F1508F451C09801220F331FCE
:1003B000000F111F000F111F000F111F020F131F3D
:1003C0000C0F111D00531109F39440C0CA32B9F14A
:1003D000C13481F49801ADECBCEC0E9446028C0162
:1003E000169507951695079516950795FF2071F1B7
:1003F000FA942CC0C23439F40F3027E2120730F5DA
:100400000F5F1F4F23C0C33431F401151105F1F004
:10041000015011091BC0C434B1F0C332B9F4CB2D63
:10042000C027C1278B2D0E944900812F0E944900BF
:10043000802F0E9449008C2F0E94490007C0FC2C8D
:100440000D2D1E2D03C0FC2C0D2D1E2D8FB7F894E5
:10045000C0917D00D0917E008FBF85E80E948B0007
:10046000C8010E94DE0085EC0E948B00CE010E9434
:10047000DE008FE39CE90197F1F700C0000075CF23
:1004800080ED8C0F8A3008F48CCFA0CFA29FB001F2
:10049000B39FC001A39F700D811D1124911DB29FB8
:1004A000700D811D1124911D0895BB274A3031F430
:1004B000992322F4BDE2909581959F4F0C9461029F
:1004C000BB27FB015527AA27880F991FAA1FA4172E
:1004D00010F0A41B83955051B9F7A05DAA3308F022
:1004E000A95DA193009779F7B111B1931192CB0156
:1004F0000C947A02DC01FC01672F71917723E1F7FC
:10050000329704C07C916D9370836291AE17BF07E0
:08051000C8F30895F894FFCF31
:100518004D31363A004D38203A00313233413435C6
:0A0528003642373839432A302344A5
:00000001FF
